:020000040800F2
:10000000C004002001010008D1100008CD10000834
:10001000CF10000821080008111800080000000097
:100020000000000000000000000000007F12000837
:100030002308000800000000BD1100082913000873
:100040001B0100081B0100081B0100081B01000820
:100050001B0100081B0100081B0100081B01000810
:10006000250800081B0100081B0100081B010008EF
:100070001B0100081B0100081B0100081B010008F0
:100080001B0100081B0100081B0100081B010008E0
:100090001B0100081B0100081B0100081B010008D0
:1000A0001B0100081B0100081B0100081B010008C0
:1000B0001B0100087D130008991300081B010008AC
:1000C0001B0100081B0100081B0100081B010008A0
:1000D0001B0100081B0100081B0100081B01000890
:1000E0001B0100081B0100081B010008DFF80CD0F1
:1000F00000F074FB00480047A51B0008C004002066
:100100000648804706480047FEE7FEE7FEE7FEE7B1
:10011000FEE7FEE7FEE7FEE7FEE7FEE72D13000839
:10012000ED000008F0B480EA0102D40F4200B2EB07
:10013000410F02D20246084611464A0042D0C30D82
:10014000DDB2C1F3C752AD1A202D35DAC1F3160165
:1001500041F4000204B15242C5F1200602FA06F150
:100160002A411044B3EBD05F23D0C4B1012DA0EBE2
:10017000C35009DCF0BC4FF0004202EAC352DBB2CC
:1001800000F5000000F09FBA400000F1807000EB25
:10019000C350A0F1807040EAD170490009E04908DD
:1001A00041EAC071A0EBC35000F50000400800EB2D
:1001B000C350F0BC00F07EBA6142012202EB410163
:1001C000001BF6E7F0BC704781F00041AAE780F021
:1001D0000040A7E730B480EA010202F0004530F0A9
:1001E000004221F0004013D090B1C30DD40DC2F3F2
:1001F0001601C0F31600E41A41F4000140F40002B5
:100200007D34914201D3641C00E04900002C02DAE5
:1002100030BC002070474FF400000023914201D30E
:10022000891A034340084FEA4101F7D151B1914285
:1002300002D14FF0004105E002D24FF0010101E090
:100240006FF0010103EBC450284430BC00F032BA17
:100250002DE9FE4F804681EA0300C00F0C46009056
:1002600021F0004123F00045B8EB0200A94105D27E
:100270004046214690461C460B46024623F000406D
:10028000104347D0270DC7F30A00C3F30A51029069
:10029000401A019040286BDAC3F3130040F4801B2E
:1002A0000098924620B10023D2EB030A63EB0B0BBC
:1002B00001985946C0F14002504600F0DAF906466E
:1002C0000D4650465946019A00F0E2F910EB08003D
:1002D0006141002487EA115284EAE7731A4340D04F
:1002E000009A62B3019A012A4FEA075215DC001BFB
:1002F00061EB02014FF0004202EA0752CDE90042F1
:10030000001C41F5801132462B4600F019FA03B06B
:10031000BDE8F08F40462146F9E7001B61EB020182
:10032000001C41F5801300185B412018A2F500174E
:1003300047EB030140EAD570B6196D4111E06D0835
:100340004FEA360645EAC0754FEA0752001B61EBDB
:100350000201001C41F5801149084FEA30000019E4
:10036000514132462B4603B0BDE8F04F00F0D9B9F9
:100370000098012240000023D0EB020263EBE073FF
:10038000009821464FEAE074B8EB000061EB0401ED
:10039000E9E783F000435BE781F0004158E72DE98E
:1003A000FE4F81EA030404F0004421F00041009470
:1003B0004FF0000B23F0004350EA01045ED052EAF4
:1003C00003045BD0C3F30A54C1F30A552C44A4F2CE
:1003D000F3340194A0FB0254C1F3130141F48011E2
:1003E000C3F3130343F4801301FB024400FB034EE9
:1003F000840A970A44EA815447EA8357A4FB0768B2
:1004000002958D0A05FB07854FEA932C04FB0C54DB
:100410002705029D4FEA065847EA1637B5EB08054F
:100420006EEB070C870E920E47EA811742EA8312A1
:10043000A7FB0201B6EB0B0164EB00042B0D43EAB2
:100440000C335E1844EB1C50DA465146E7FB0201C0
:10045000C5F313044FEA0B3343EA14534FEA043253
:10046000019C43EA0603A4F10C040294009CCDE92C
:1004700000B400F065F903B0BDE8F08F002001463C
:10048000F9E72DE9F04D81EA030404F0004B21F077
:10049000004514464FF0000A23F0004150EA0502DF
:1004A00020D054EA01021DD0C5F30A570246C5F315
:1004B0001303C1F31300C1F30A5640F4801543F44B
:1004C0008013A7EB0608101BD64608F2FD3873EB25
:1004D000050002D308F1010801E092185B41B8F170
:1004E000000F03DA00200146BDE8F08D00204FF434
:1004F0008011064684460EE0171B73EB050705D3F3
:10050000121B63EB050306434CEA010C49084FEA52
:10051000300092185B4150EA0107EDD152EA030026
:1005200012D082EA040083EA0501084305D0101BBB
:10053000AB4106D20122002306E000224FF0004327
:1005400002E06FF0010253101AEB06004CEB085169
:1005500010EB0A0041EB0B01BDE8F04D00F0E1B8F3
:1005600070B521F0004303430CD0C1F30A550024B9
:10057000D5EB040564EB0403D617AD1AB34102DBD7
:100580000020014670BD201841EB025170BDC10F23
:1005900080EAE0700844CA079623002100F093B86F
:1005A0000EB5C10F80EAE0700844CA07002140F28E
:1005B00033438DE80E000A460B4600F0C1F803B045
:1005C00000BD0EB540F2334102910021CDE900118A
:1005D0000A460B4600F0B4F803B000BD00F000423C
:1005E00020F00040C10DC0F3160040F400007F2948
:1005F00001DA00207047962903DCC1F19601C8405A
:1006000001E096398840002AF4D04042704701F05A
:10061000004330B421F0004150EA010206D00A0D37
:10062000A2F56072C1F31301002A02DC30BC002085
:100630007047440F44EAC104C100E01830BC00EB2D
:10064000C25000F037B830B50B46014600202022DA
:10065000012409E021FA02F59D4205D303FA02F5CF
:10066000491B04FA02F52844151EA2F10102F1DC2F
:1006700030BD202A04DB203A00FA02F10020704746
:100680009140C2F1200320FA03F3194390407047D0
:10069000202A06DBCB17203A41FA02F043EAE07346
:1006A00006E041FA02F3D040C2F120029140084333
:1006B000194670470029A8BF7047401C490008BF71
:1006C00020F00100704710B4B0FA80FC00FA0CF082
:1006D00050EA010404BF10BC704749B1CCF12004BA
:1006E00021FA04F411FA0CF118BF01212143084347
:1006F000A3EB0C01CB1D4FEA00614FEA102042BF73
:10070000002010BC704700EBC35010440029A4BF68
:1007100010BC7047401C490008BF20F0010010BC0D
:10072000704710B5141E73F1000408DA401C41F143
:10073000000192185B411A4301D120F0010010BD65
:100740002DE9F04D92469B4611B1B1FA81F202E0DB
:10075000B0FA80F220329046FFF78BFF04460F4636
:1007600040EA0A0041EA0B0153465A46084313D0B7
:10077000114653EA010019D0C8F14002504600F07A
:100780003FF805460E46504659464246FFF771FF70
:10079000084305D0012004E020463946BDE8F08D2D
:1007A0000020054346EAE0762C4337430A98630568
:1007B000E40AA0EB08000022FD0A44EA47540A308C
:1007C00002D500200146E9E7010510196941DDE97C
:1007D000084500196941BDE8F04DA2E7064C074DF8
:1007E00006E0E06840F0010394E807009847103401
:1007F000AC42F6D3FFF77EFCB81C0008D81C0008FA
:10080000202A04DB203A21FA02F00021704721FA65
:1008100002F3D040C2F120029140084319467047CC
:10082000FEE7704710B5042000F03EF8B8B104218F
:100830000D4800F025FB0D4C0D4A48B10C49002035
:100840002431606008800121104600F037FE06E088
:100850000021104600F032FE606801F0F5F8BDE8B6
:100860001040042000F006B80008014000000020FD
:100870000004004010B50446000D00D11CB9FC2155
:1008800002A001F0C3F80748046010BD7372635CF6
:1008900073746D3332663130785F657874692E63B6
:1008A000000000001404014070B500250446012832
:1008B00035D0022C33D0042C31D0082C2FD0102C62
:1008C0002DD0202C2BD0402C29D0802C27D0B4F533
:1008D000807F24D0B4F5007F21D0B4F5806F1ED086
:1008E000B4F5006F1BD0B4F5805F18D0B4F5005F8D
:1008F00015D0B4F5804F12D0B4F5004F0FD0B4F539
:10090000803F0CD0B4F5003F09D0B4F5802F06D05D
:10091000B4F5002F03D0E52107A001F077F80C48CB
:1009200000680B49204014310968214201D000B110
:100930000125284670BD00007372635C73746D33CB
:1009400032663130785F657874692E63000000008C
:100950000004014070B50446007928B1042803D092
:100960006A2129A001F052F86079082807D00C28E4
:1009700005D0102803D06B2123A001F047F8206890
:10098000010D00D118B96C211FA001F03FF8A0792A
:1009900028B1012803D06D211BA001F037F82049B0
:1009A000A07958B30868226890430860081D02685F
:1009B00023689A43026020790844026823681A4336
:1009C0000260174B083318682268904318601A1D9C
:1009D00010682568A84310606079102805D0084485
:1009E000016822681143016070BD186821680843DE
:1009F0001860106821680843106070BD20790844B1
:100A0000016822689143EEE77372635C73746D331F
:100A100032663130785F657874692E6300000000BB
:100A20000004014038B510258DF8035003248DF8DB
:100A300002404FF6FF70ADF8000069460F4800F025
:100A40007BF88DF803508DF8024002200C4DADF874
:100A500000006946284600F06FF804218DF8031065
:100A60008DF80240ADF800106946284600F064F8A1
:100A70000121044800F00AF938BD000000100140CF
:100A8000000801400002300070B50C46050010D08F
:100A9000012D0ED0022D0CD0032D0AD0042D08D02C
:100AA000052D06D0062D04D040F265211BA000F0D4
:100AB000ADFF14B3012C20D0022C1ED0032C1CD06F
:100AC000042C1AD0052C18D0062C16D0072C14D0C4
:100AD000082C12D0092C10D00A2C0ED00B2C0CD0C4
:100AE0000C2C0AD00D2C08D00E2C06D00F2C04D0C4
:100AF00040F2662109A000F089FFA007010F0D4810
:100B000024F0030318440F2283688A4093438360D0
:100B100082688D402A43826070BD00007372635CFE
:100B200073746D3332663130785F6770696F2E632E
:100B300000000000000001402DE9F0410446464855
:100B400000260D46844215D04448844212D04448C1
:100B500084420FD0434884420CD04348844209D099
:100B60004248844206D04248844203D0B22141A088
:100B700000F04CFFE87888B104280FD028280DD069
:100B800048280BD0142809D0102807D01C2805D0DD
:100B9000182803D0B32137A000F038FF288818B9EF
:100BA000B42134A000F032FFE87800F00F07C0064F
:100BB0000CD5A878012807D0022805D0032803D037
:100BC000BB212CA000F022FFA878074328784FF023
:100BD0000F0C10F0FF0F4FF0010E1BD021682A8878
:100BE0000EFA06F00240824210D1B2000CFA02F373
:100BF00021EA030307FA02F1EA781943282A02D00E
:100C0000482A02D002E0606100E02061761C082ED4
:100C1000E5D321602888FF281CD96168002000F1F5
:100C200008030EFA03F22B88134093420ED183007F
:100C30000CFA03F6B14307FA03F6EB783143282B9D
:100C400000D16261EB78482B00D12261401C08285A
:100C5000E5D36160BDE8F08100080140000C01406F
:100C6000001001400014014000180140001C014028
:100C7000002001407372635C73746D3332663130EF
:100C8000785F6770696F2E63000000002DE9F04106
:100C90000D46044601287DD0022C7BD0042C79D04F
:100CA000082C77D0A4F5A010103873D0A4F5A010AC
:100CB00030386FD0A4F5B01040386BD0A4F5B01028
:100CC000C0387DD0574884427AD05748844277D084
:100CD0005648844274D05648844271D05548844264
:100CE0006ED0B4F5805F6BD0B4F5EA1F68D0B4F570
:100CF000EB1F65D0B4F5004F62D06FF40010C44212
:100D00005ED0A4F50010801E5AD0A4F50010001F7C
:100D100056D0A4F50010083852D0A4F500101038B1
:100D20004ED0B4F1201F4BD0A4F50010403847D06E
:100D30004148844244D04148844241D040488442A2
:100D40003ED0404884423BD03F48844238D0B4F53E
:100D5000011F35D06FF00040C44231D0C01C844226
:100D60002ED0801C84422BD0001D844228D03748CE
:100D7000844225D035481030844221D03348303069
:100D800084421DD031487030844219D02F48F03051
:100D9000844200E014E013D02D48844210D02D4846
:100DA00084420DD02C4884420AD02C48844207D07B
:100DB0002B48844204D040F22A212AA000F026FECB
:100DC00035B1012D04D040F22B2126A000F01EFEEB
:100DD0002A49002C01DACA6900E04A68630D1E0145
:100DE000A3B2C4F30157B340C4F30340032F05D0AB
:100DF000E6020AD503268640B24307E022F070607F
:100E00004A6822F070624A6002E09A4342F07060E1
:100E100005B11843002C02DAC861BDE8F0814860D2
:100E2000FBE7000000011800000218000003180092
:100E300000081A00000C1A00000130000002300007
:100E4000000430000011200000202000100000806D
:100E50000002008000040080000800800010008074
:100E6000002000807372635C73746D3332663130BE
:100E7000785F6770696F2E6300000000000001401A
:100E800070B50546274800260C46854216D02648F0
:100E9000854213D02548854210D0254885420DD083
:100EA000244885420AD02448854207D023488542F9
:100EB00004D04FF48F7122A000F0A8FD012C2AD09D
:100EC000022C28D0042C26D0082C24D0102C22D080
:100ED000202C20D0402C1ED0802C1CD0B4F5807F3C
:100EE00019D0B4F5007F16D0B4F5806F13D0B4F5E7
:100EF000006F10D0B4F5805F0DD0B4F5005F0AD05C
:100F0000B4F5804F07D0B4F5004F04D040F21F1164
:100F10000BA000F07BFDA868204200D001263046DF
:100F200070BD000000080140000C014000100140AD
:100F30000014014000180140001C01400020014045
:100F40007372635C73746D3332663130785F6770CF
:100F5000696F2E630000000070B5044611480D460D
:100F6000844216D01048844213D01048844210D0D6
:100F70000F4884420DD00F4884420AD00E48844264
:100F800007D00E48844204D040F279110CA000F042
:100F90003DFD25B94FF4BD7109A000F037FD656135
:100FA00070BD000000080140000C0140001001402D
:100FB0000014014000180140001C014000200140C5
:100FC0007372635C73746D3332663130785F67704F
:100FD000696F2E630000000070B5044611480D468D
:100FE000844216D01048844213D01048844210D056
:100FF0000F4884420DD00F4884420AD00E488442E4
:1010000007D00E48844204D040F269110CA000F0D1
:10101000FDFC25B94FF4B57109A000F0F7FC25617E
:1010200070BD000000080140000C014000100140AC
:101030000014014000180140001C01400020014044
:101040007372635C73746D3332663130785F6770CE
:10105000696F2E630000000070B504460E480D460F
:10106000844216D00D48844213D00D48844210D0DB
:101070000C4884420DD00C4884420AD00B4884426C
:1010800007D00B48844204D04FF4D27109A000F07D
:10109000BDFCE56070BD000000080140000C01408F
:1010A000001001400014014000180140001C0140E4
:1010B000002001407372635C73746D3332663130AB
:1010C000785F6770696F2E6300000000FEE7FEE73F
:1010D0007047000070B50446C0780F2528B101287C
:1010E00003D075211FA000F091FC6078102803D375
:1010F00076211CA000F08AFCA078102803D3772169
:1011000018A000F083FCE0780122F8B118480068CC
:10111000617800F4E060C0F5E060000AC0F104030B
:10112000C540A0789940284008432178000101F18A
:10113000E02181F80004207800F01F018A40400976
:10114000800000F1E020C0F8002170BD207800F0A0
:101150001F018A404009800000F1E020C0F8802192
:1011600070BD00007372635C6D6973632E63000071
:101170000CED00E010B50446B0F5E06F0FD0B4F50B
:10118000C06F0CD0B4F5A06F09D0B4F5806F06D055
:10119000B4F5407F03D0632103A000F037FC05487D
:1011A00004430548046010BD7372635C6D6973632A
:1011B0002E6300000000FA050CED00E0704700000F
:1011C00070B504460C480D46044200D124B940F2E3
:1011D00069410AA000F01AFC0D4E4DB1012D04D05A
:1011E00040F26A4105A000F011FCF069204301E0E3
:1011F000F069A043F06170BD003601817372635CD9
:1012000073746D3332663130785F7263632E6300BE
:101210000010024070B504460C480D46044200D14F
:1012200024B940F24A410AA000F0F0FB0D4E4DB146
:10123000012D04D040F24B4105A000F0E7FBB0695E
:10124000204301E0B069A043B06170BD0200C0FF5F
:101250007372635C73746D3332663130785F7263BE
:10126000632E63000010024010B501211520FFF726
:10127000D1FF0121BDE810400620FFF7A1BF704754
:101280000CB50022264800920192016841F4803199
:1012900001604FF4A063016801F4003101910099ED
:1012A000491C0091019911B900999942F3D1016843
:1012B000890333D5012101911A490A6842F01002CD
:1012C0000A600A6822F003020A600A6842F0020219
:1012D0000A604168416041684160416841F4806151
:1012E0004160416821F47C114160416841F4E8119A
:1012F0004160016841F08071016001688901FCD59D
:10130000416821F003014160416841F00201416000
:101310004168C1F381010229FAD10CBD01920CBDD3
:101320000010024000200240704700000F4810B536
:10133000016841F00101016041680D4A11404160BE
:1013400001680C4A11400160016821F480210160AC
:10135000416821F4FE0141604FF41F018160FFF7F5
:101360008FFF05494FF00060086010BD001002407B
:101370000000FFF8FFFFF6FE08ED00E010B50121C8
:10138000034800F02BF803484168491C416010BD38
:10139000000400400000002010B501210C4800F0BE
:1013A0001DF80C4C0C4821880A294FF0020102D28A
:1013B000FFF712FE01E0FFF7CFFD208849F640411C
:1013C000401C80B22080884201D90020208010BDBE
:1013D00000080040000000200008014070B50446ED
:1013E00021480D46844234D0B4F1804F31D01F489B
:1013F00084422ED01E4884422BD01E48844228D0DE
:101400001D48844225D01D48844222D01C48844275
:101410001FD01C4884421CD01B48844219D01B4852
:10142000844216D01A48844213D01A48844210D0FD
:10143000194884420DD0194884420AD01848844281
:1014400007D01848844204D040F6772116A000F057
:10145000DDFA280A00D125B940F6782112A000F063
:10146000D5FAE843208270BD002C01400004004002
:1014700000080040000C0040001000400014004034
:1014800000340140004C0140005001400054014034
:1014900000180040001C00400020004000400140B7
:1014A00000440140004801407372635C73746D3303
:1014B00032663130785F74696D2E630070B5044612
:1014C00024480D46844234D0B4F1804F31D02248B4
:1014D00084422ED0214884422BD02148844228D0F7
:1014E0002048844225D02048844222D01F4884428C
:1014F0001FD01F4884421CD01E48844219D01E4869
:10150000844216D01D48844213D01D48844210D016
:101510001C4884420DD01C4884420AD01B48844297
:1015200007D01B48844204D040F2293119A000F0B2
:101530006DFA55B1012D04D040F22A3115A000F00A
:1015400065FA208840F0010002E0208820F00100C8
:10155000208070BD002C01400004004000080040C5
:10156000000C004000100040001400400034014016
:10157000004C014000500140005401400018004060
:10158000001C004000200040004001400044014099
:10159000004801407372635C73746D33326631309E
:1015A000785F74696D2E630070B50446284816464E
:1015B0000D46844234D0B4F1804F31D02548844266
:1015C0002ED0254884422BD02448844228D0244859
:1015D000844225D02348844222D0234884421FD00D
:1015E000224884421CD02248844219D02148844297
:1015F00016D02148844213D02048844210D020487D
:1016000084420DD01F4884420AD01F48844207D02C
:101610001E48844204D040F26B311DA000F0F6F960
:10162000280A00D125B94FF45B7119A000F0EEF93A
:101630004EB1012E04D040F26D3115A000F0E6F954
:10164000A089284301E0A089A843A08170BD0000C3
:10165000002C01400004004000080040000C004045
:10166000001000400014004000340140004C0140D4
:10167000005001400054014000180040001C004090
:10168000002000400040014000440140004801406B
:101690007372635C73746D3332663130785F746972
:1016A0006D2E63002DE9F05F444FDFF81481DFF801
:1016B0001491DFF814A1DFF814B1454E0D4604462D
:1016C000B8422ED0B4F1804F2BD0444529D04C45A0
:1016D00027D0544525D05C4523D03E48844220D0B5
:1016E000B4421ED03C4884421BD03C48844218D0AF
:1016F0003B48844215D03B48844212D03A48844249
:101700000FD03A4884420CD03948844209D0394835
:10171000844206D03848844203D0E72137A000F045
:1017200075F9688858B1102809D0202807D04028BA
:1017300005D0602803D0E82130A000F067F9E888E0
:1017400048B1B0F5807F06D0B0F5007F03D0E92125
:101750002AA000F05BF92088BC420AD0B44208D02D
:10176000B4F1804F05D0444503D04C4501D05445D9
:1017700003D120F07001688808435C4506D0154904
:101780008C4203D020F44071E88808432080A88868
:10179000A08528882085BC420AD0B44208D01448CD
:1017A000844205D01348844202D01348844201D1B8
:1017B000287A20860120A082BDE8F09F002C0140FD
:1017C0000004004000080040000C004000100040F1
:1017D0000034014000140040004C01400050014022
:1017E0000054014000180040001C00400020004050
:1017F0000040014000440140004801407372635CB6
:1018000073746D3332663130785F74696D2E6300A6
:10181000FEE700000FB4054B10B503A9044A029877
:1018200000F018F810BC5DF814FB0000911B0008D4
:10183000A800002002E008C8121F08C1002AFAD13F
:1018400070477047002001E001C1121F002AFBD140
:10185000704700002DE9FF4F8BB09A460F460546B2
:10186000002606E025280BD052460D9990476D1CA6
:10187000761C28780028F5D10FB03046BDE8F08FEF
:101880000024A0460122604900E0044315F8013F0E
:10189000203B02FA03F00842F7D128782E2817D10E
:1018A00015F8010F44F004042A280ED06FF02F021F
:1018B0002878A0F1300109290AD808EB880102EB49
:1018C000410100EB01086D1CF2E757F8048B6D1C19
:1018D000287869283ED006DC0028CDD063280BD0BC
:1018E000642804D136E0732810D075284BD05246B6
:1018F0000D999047761C85E017F8040B8DF80000D1
:1019000000208DF80100E946012003E057F8049B10
:101910004FF0FF3061074FF0000401D40AE0641C6F
:1019200044450DDA8442FADB19F804100029F6D197
:1019300006E0641C8442FCDB19F804100029F8D18D
:10194000264404E019F8010B52460D999047641E95
:10195000F8D257E001CF4FF00A0B002802DA4042DC
:101960002D2102E0210504D52B218DF82410012121
:1019700003E0E10705D02021F7E70DF120090891E8
:101980000CE00021F9E701CF4FF00A0BF9E75946C7
:10199000FEF759FE01F1300209F8012D0028F6D1B9
:1019A000ADEB090000F1200B600701D44FF00108F6
:1019B000D84502DDA8EB0B0000E0002080460024A3
:1019C00006E009A85246005D0D999047641C761CFC
:1019D00008988442F5DB04E0302052460D99904788
:1019E000761CB8F10001A8F10108F5DC05E019F852
:1019F000010B52460D999047761CBBF10001ABF1EB
:101A0000010BF4DC6D1C34E7092801000A4601468D
:101A100001A0FFF7FFFEFEE757726F6E672070614F
:101A200072616D65746572732076616C75653A20BC
:101A300066696C65202573206F6E206C696E652069
:101A400025640D0A000000002DE9F04106462F48EC
:101A50000088FEF7B6FD04460D463046FEF7A0FDB1
:101A600000222B4BFEF79BFC22462B46FEF7F0FB99
:101A70000022284BFEF705FD0022274BFEF78FFCC6
:101A80000022264BFEF78BFC4FF0FF32FEF768FD7D
:101A9000FEF7BDFD05462249FEF79CFBFEF79EFDC5
:101AA000204C4FF47A71E0604843FEF770FD064623
:101AB0002946FEF78CFB1C49FEF78CFBFEF78EFDDA
:101AC0006421A0604843FEF762FD07462946FEF701
:101AD0007EFB3146FEF778FB1449FEF77BFBFEF7F1
:101AE0007DFD606000EB80004000FEF750FD294660
:101AF000FEF76DFB3946FEF767FB3146FEF764FBE8
:101B0000FEF76CFD2060BDE8F08100002404004079
:101B10000000594080842E410040754000408F40B5
:101B200000007A44AC0000200000C84200002041C0
:101B30002DE9F0410A4E0B4F0546002404EB8400CA
:101B400055F8241006EBC00030F8210081B2384669
:101B5000FFF782FA641C042CF0DBBDE8F081000082
:101B600008000020001001401CB502210020FEF7F3
:101B70008BFF0420009000208DF8040010208DF8C9
:101B8000050001208DF806006846FEF7E3FE1CBD47
:101B900038B504468DF8000069460320ABBE2046E8
:101BA00038BD0000FFF760FBFEF73CFF00F062F875
:101BB000FFF7DAFF00F03CF800F006F80148FFF705
:101BC000B7FFFBE7AC000020F8B54FF4C066304625
:101BD000FFF7D0FA1E208DF8000001248DF8014097
:101BE00000258DF802508DF803406846FFF772FA21
:101BF0003046FFF7BFFA1D208DF800008DF8014038
:101C00008DF802408DF803406846FFF763FA3046CE
:101C1000FFF7B0FA08208DF800008DF801508DF81C
:101C200002508DF803406846FFF754FAF8BD0000F3
:101C30003EB56320ADF804004720ADF80000002059
:101C40000B4CADF80600ADF8020069462046FFF7E0
:101C500029FD01212046FFF7C1FB01221146204644
:101C6000FFF7A2FC00212046FFF728FC3EBD000044
:101C7000000400403EB50920ADF804004720ADF84F
:101C8000000000200B4CADF80600ADF802006946DC
:101C90002046FFF707FD01212046FFF79FFB0122A9
:101CA00011462046FFF780FC01212046FFF706FC85
:101CB0003EBD000000080040D81C000800000020C5
:101CC000AC00000034180008841D0008AC0000209F
:101CD0001404000044180008000000000000000088
:101CE000C0010000F9010000A4010000B0010000E3
:101CF000990100009201000082010000F80100003B
:101D00008001000090010000400200007902000004
:101D1000240200003002000019020000120200003C
:101D20000202000078020000000200001002000021
:101D3000C0040000F9040000A4040000B004000086
:101D4000990400009204000082040000F8040000DE
:101D50008004000090040000C0080000F9080000A2
:101D6000A4080000B00800009908000092080000D4
:101D700082080000F80800008008000090080000B9
:041D8000000000005F
:0400000508000101ED
:00000001FF
